{
  "_format": "hh-sol-artifact-1",
  "contractName": "AuctionPlatform",
  "sourceName": "contracts/AuctionPlatform.sol",
  "abi": [
    {
      "inputs": [],
      "stateMutability": "nonpayable",
      "type": "constructor"
    },
    {
      "anonymous": false,
      "inputs": [
        {
          "indexed": true,
          "internalType": "uint256",
          "name": "auctionId",
          "type": "uint256"
        },
        {
          "indexed": false,
          "internalType": "string",
          "name": "title",
          "type": "string"
        },
        {
          "indexed": true,
          "internalType": "address",
          "name": "seller",
          "type": "address"
        },
        {
          "indexed": false,
          "internalType": "uint256",
          "name": "startTime",
          "type": "uint256"
        },
        {
          "indexed": false,
          "internalType": "uint256",
          "name": "endTime",
          "type": "uint256"
        }
      ],
      "name": "AuctionCreated",
      "type": "event"
    },
    {
      "anonymous": false,
      "inputs": [
        {
          "indexed": true,
          "internalType": "uint256",
          "name": "auctionId",
          "type": "uint256"
        },
        {
          "indexed": true,
          "internalType": "address",
          "name": "winner",
          "type": "address"
        },
        {
          "indexed": false,
          "internalType": "uint256",
          "name": "timestamp",
          "type": "uint256"
        }
      ],
      "name": "AuctionEnded",
      "type": "event"
    },
    {
      "anonymous": false,
      "inputs": [
        {
          "indexed": true,
          "internalType": "uint256",
          "name": "auctionId",
          "type": "uint256"
        },
        {
          "indexed": true,
          "internalType": "address",
          "name": "winner",
          "type": "address"
        },
        {
          "indexed": false,
          "internalType": "uint256",
          "name": "finalPrice",
          "type": "uint256"
        }
      ],
      "name": "AuctionSettled",
      "type": "event"
    },
    {
      "anonymous": false,
      "inputs": [
        {
          "indexed": true,
          "internalType": "uint256",
          "name": "auctionId",
          "type": "uint256"
        },
        {
          "indexed": true,
          "internalType": "address",
          "name": "bidder",
          "type": "address"
        },
        {
          "indexed": false,
          "internalType": "uint256",
          "name": "timestamp",
          "type": "uint256"
        }
      ],
      "name": "BidPlaced",
      "type": "event"
    },
    {
      "anonymous": false,
      "inputs": [
        {
          "indexed": true,
          "internalType": "address",
          "name": "user",
          "type": "address"
        },
        {
          "indexed": false,
          "internalType": "uint256",
          "name": "amount",
          "type": "uint256"
        }
      ],
      "name": "FundsDeposited",
      "type": "event"
    },
    {
      "anonymous": false,
      "inputs": [
        {
          "indexed": true,
          "internalType": "address",
          "name": "user",
          "type": "address"
        },
        {
          "indexed": false,
          "internalType": "uint256",
          "name": "amount",
          "type": "uint256"
        }
      ],
      "name": "FundsWithdrawn",
      "type": "event"
    },
    {
      "anonymous": false,
      "inputs": [
        {
          "indexed": false,
          "internalType": "uint256",
          "name": "newFeePercentage",
          "type": "uint256"
        }
      ],
      "name": "PlatformFeeUpdated",
      "type": "event"
    },
    {
      "inputs": [],
      "name": "MAX_AUCTION_DURATION",
      "outputs": [
        {
          "internalType": "uint256",
          "name": "",
          "type": "uint256"
        }
      ],
      "stateMutability": "view",
      "type": "function"
    },
    {
      "inputs": [],
      "name": "MIN_AUCTION_DURATION",
      "outputs": [
        {
          "internalType": "uint256",
          "name": "",
          "type": "uint256"
        }
      ],
      "stateMutability": "view",
      "type": "function"
    },
    {
      "inputs": [],
      "name": "MIN_BID_INCREMENT",
      "outputs": [
        {
          "internalType": "uint256",
          "name": "",
          "type": "uint256"
        }
      ],
      "stateMutability": "view",
      "type": "function"
    },
    {
      "inputs": [],
      "name": "auctionCount",
      "outputs": [
        {
          "internalType": "uint256",
          "name": "",
          "type": "uint256"
        }
      ],
      "stateMutability": "view",
      "type": "function"
    },
    {
      "inputs": [
        {
          "internalType": "uint256",
          "name": "",
          "type": "uint256"
        }
      ],
      "name": "auctions",
      "outputs": [
        {
          "internalType": "uint256",
          "name": "id",
          "type": "uint256"
        },
        {
          "internalType": "string",
          "name": "title",
          "type": "string"
        },
        {
          "internalType": "string",
          "name": "description",
          "type": "string"
        },
        {
          "internalType": "address",
          "name": "seller",
          "type": "address"
        },
        {
          "internalType": "uint256",
          "name": "startTime",
          "type": "uint256"
        },
        {
          "internalType": "uint256",
          "name": "endTime",
          "type": "uint256"
        },
        {
          "internalType": "euint64",
          "name": "reservePrice",
          "type": "uint256"
        },
        {
          "internalType": "euint64",
          "name": "highestBid",
          "type": "uint256"
        },
        {
          "internalType": "address",
          "name": "highestBidder",
          "type": "address"
        },
        {
          "internalType": "enum AuctionPlatform.AuctionStatus",
          "name": "status",
          "type": "uint8"
        },
        {
          "internalType": "uint256",
          "name": "bidCount",
          "type": "uint256"
        },
        {
          "internalType": "bool",
          "name": "settled",
          "type": "bool"
        }
      ],
      "stateMutability": "view",
      "type": "function"
    },
    {
      "inputs": [
        {
          "internalType": "address",
          "name": "",
          "type": "address"
        }
      ],
      "name": "bidderFunds",
      "outputs": [
        {
          "internalType": "uint256",
          "name": "",
          "type": "uint256"
        }
      ],
      "stateMutability": "view",
      "type": "function"
    },
    {
      "inputs": [
        {
          "internalType": "uint256",
          "name": "",
          "type": "uint256"
        },
        {
          "internalType": "address",
          "name": "",
          "type": "address"
        }
      ],
      "name": "bids",
      "outputs": [
        {
          "internalType": "euint64",
          "name": "",
          "type": "uint256"
        }
      ],
      "stateMutability": "view",
      "type": "function"
    },
    {
      "inputs": [
        {
          "internalType": "uint256",
          "name": "auctionId",
          "type": "uint256"
        }
      ],
      "name": "canSettleAuction",
      "outputs": [
        {
          "internalType": "bool",
          "name": "",
          "type": "bool"
        }
      ],
      "stateMutability": "view",
      "type": "function"
    },
    {
      "inputs": [
        {
          "internalType": "string",
          "name": "title",
          "type": "string"
        },
        {
          "internalType": "string",
          "name": "description",
          "type": "string"
        },
        {
          "internalType": "einput",
          "name": "encryptedReservePrice",
          "type": "bytes32"
        },
        {
          "internalType": "bytes",
          "name": "inputProof",
          "type": "bytes"
        },
        {
          "internalType": "uint256",
          "name": "duration",
          "type": "uint256"
        }
      ],
      "name": "createAuction",
      "outputs": [
        {
          "internalType": "uint256",
          "name": "",
          "type": "uint256"
        }
      ],
      "stateMutability": "nonpayable",
      "type": "function"
    },
    {
      "inputs": [
        {
          "internalType": "uint256",
          "name": "auctionId",
          "type": "uint256"
        }
      ],
      "name": "emergencyStopAuction",
      "outputs": [],
      "stateMutability": "nonpayable",
      "type": "function"
    },
    {
      "inputs": [
        {
          "internalType": "uint256",
          "name": "auctionId",
          "type": "uint256"
        }
      ],
      "name": "getAuction",
      "outputs": [
        {
          "internalType": "uint256",
          "name": "id",
          "type": "uint256"
        },
        {
          "internalType": "string",
          "name": "itemName",
          "type": "string"
        },
        {
          "internalType": "string",
          "name": "itemDescription",
          "type": "string"
        },
        {
          "internalType": "address",
          "name": "seller",
          "type": "address"
        },
        {
          "internalType": "uint256",
          "name": "creationTime",
          "type": "uint256"
        },
        {
          "internalType": "uint256",
          "name": "endTime",
          "type": "uint256"
        },
        {
          "internalType": "bool",
          "name": "isActive",
          "type": "bool"
        },
        {
          "internalType": "bool",
          "name": "isSettled",
          "type": "bool"
        }
      ],
      "stateMutability": "view",
      "type": "function"
    },
    {
      "inputs": [
        {
          "internalType": "uint256",
          "name": "auctionId",
          "type": "uint256"
        }
      ],
      "name": "getBidCount",
      "outputs": [
        {
          "internalType": "uint256",
          "name": "",
          "type": "uint256"
        }
      ],
      "stateMutability": "view",
      "type": "function"
    },
    {
      "inputs": [
        {
          "internalType": "uint256",
          "name": "",
          "type": "uint256"
        },
        {
          "internalType": "address",
          "name": "",
          "type": "address"
        }
      ],
      "name": "hasBid",
      "outputs": [
        {
          "internalType": "bool",
          "name": "",
          "type": "bool"
        }
      ],
      "stateMutability": "view",
      "type": "function"
    },
    {
      "inputs": [
        {
          "internalType": "uint256",
          "name": "auctionId",
          "type": "uint256"
        },
        {
          "internalType": "address",
          "name": "bidder",
          "type": "address"
        }
      ],
      "name": "hasUserBid",
      "outputs": [
        {
          "internalType": "bool",
          "name": "",
          "type": "bool"
        }
      ],
      "stateMutability": "view",
      "type": "function"
    },
    {
      "inputs": [],
      "name": "owner",
      "outputs": [
        {
          "internalType": "address",
          "name": "",
          "type": "address"
        }
      ],
      "stateMutability": "view",
      "type": "function"
    },
    {
      "inputs": [],
      "name": "pause",
      "outputs": [],
      "stateMutability": "nonpayable",
      "type": "function"
    },
    {
      "inputs": [],
      "name": "paused",
      "outputs": [
        {
          "internalType": "bool",
          "name": "",
          "type": "bool"
        }
      ],
      "stateMutability": "view",
      "type": "function"
    },
    {
      "inputs": [
        {
          "internalType": "uint256",
          "name": "auctionId",
          "type": "uint256"
        },
        {
          "internalType": "einput",
          "name": "encryptedBidAmount",
          "type": "bytes32"
        },
        {
          "internalType": "bytes",
          "name": "inputProof",
          "type": "bytes"
        }
      ],
      "name": "placeBid",
      "outputs": [],
      "stateMutability": "payable",
      "type": "function"
    },
    {
      "inputs": [],
      "name": "platformFeePercentage",
      "outputs": [
        {
          "internalType": "uint256",
          "name": "",
          "type": "uint256"
        }
      ],
      "stateMutability": "view",
      "type": "function"
    },
    {
      "inputs": [],
      "name": "platformRevenue",
      "outputs": [
        {
          "internalType": "uint256",
          "name": "",
          "type": "uint256"
        }
      ],
      "stateMutability": "view",
      "type": "function"
    },
    {
      "inputs": [
        {
          "internalType": "uint256",
          "name": "newFeePercentage",
          "type": "uint256"
        }
      ],
      "name": "setPlatformFee",
      "outputs": [],
      "stateMutability": "nonpayable",
      "type": "function"
    },
    {
      "inputs": [],
      "name": "unpause",
      "outputs": [],
      "stateMutability": "nonpayable",
      "type": "function"
    },
    {
      "inputs": [],
      "name": "withdrawFunds",
      "outputs": [],
      "stateMutability": "nonpayable",
      "type": "function"
    }
  ],
  "bytecode": "0x608060405260fa6002556003805460ff1916905534801561001f57600080fd5b50600080546001600160a01b03191633179055611611806100416000396000f3fe6080604052600436106101405760003560e01c806371943bce116100b6578063b98d8c2f1161006f578063b98d8c2f146103ab578063c2f50a7a146103cb578063ca96dd27146103e1578063cdd78cfc14610401578063daaf4c6014610417578063e2f9df0b1461043757600080fd5b806371943bce146102cf578063744d3411146102ea57806378bd79351461030a5780638456cb591461033e5780638da5cb5b14610353578063aa591c831461038b57600080fd5b80633f1ffcec116101085780633f1ffcec146101ce5780633f4ba83a146102065780633fb351781461021b578063449e881214610232578063571a26a01461027d5780635c975abb146102b557600080fd5b806312e8e2c31461014557806324048ba11461016757806324600fc3146101905780632ad71573146101a55780633ec04a7d146101bb575b600080fd5b34801561015157600080fd5b50610165610160366004610fe9565b610464565b005b34801561017357600080fd5b5061017d60085481565b6040519081526020015b60405180910390f35b34801561019c57600080fd5b50610165610513565b3480156101b157600080fd5b5061017d60015481565b6101656101c936600461104b565b6105db565b3480156101da57600080fd5b5061017d6101e93660046110ba565b600560209081526000928352604080842090915290825290205481565b34801561021257600080fd5b50610165610859565b34801561022757600080fd5b5061017d62278d0081565b34801561023e57600080fd5b5061026d61024d3660046110ba565b600660209081526000928352604080842090915290825290205460ff1681565b6040519015158152602001610187565b34801561028957600080fd5b5061029d610298366004610fe9565b61088f565b6040516101879c9b9a99989796959493929190611142565b3480156102c157600080fd5b5060035461026d9060ff1681565b3480156102db57600080fd5b5061017d66038d7ea4c6800081565b3480156102f657600080fd5b5061017d610305366004610fe9565b610a12565b34801561031657600080fd5b5061032a610325366004610fe9565b610a51565b6040516101879897969594939291906111f3565b34801561034a57600080fd5b50610165610c23565b34801561035f57600080fd5b50600054610373906001600160a01b031681565b6040516001600160a01b039091168152602001610187565b34801561039757600080fd5b5061026d6103a6366004610fe9565b610c5c565b3480156103b757600080fd5b506101656103c6366004610fe9565b610cc8565b3480156103d757600080fd5b5061017d610e1081565b3480156103ed57600080fd5b5061026d6103fc3660046110ba565b610d39565b34801561040d57600080fd5b5061017d60025481565b34801561042357600080fd5b5061017d6104323660046112fd565b610d66565b34801561044357600080fd5b5061017d61045236600461139e565b60076020526000908152604090205481565b6000546001600160a01b031633146104975760405162461bcd60e51b815260040161048e906113c0565b60405180910390fd5b6103e88111156104d85760405162461bcd60e51b815260206004820152600c60248201526b08ccaca40e8dede40d0d2ced60a31b604482015260640161048e565b60028190556040518181527f45610d581145924dd7090a5017e5f2b1d6f42213bb2e95707ff86846bbfcb1ca9060200160405180910390a150565b33600090815260076020526040902054806105675760405162461bcd60e51b81526020600482015260146024820152734e6f2066756e647320746f20776974686472617760601b604482015260640161048e565b336000818152600760205260408082208290555183156108fc0291849190818181858888f193505050501580156105a2573d6000803e3d6000fd5b5060405181815233907feaff4b37086828766ad3268786972c0cd24259d4c87a80f9d3963a3c3d999b0d9060200160405180910390a250565b60035460ff16156106235760405162461bcd60e51b815260206004820152601260248201527110dbdb9d1c9858dd081a5cc81c185d5cd95960721b604482015260640161048e565b8360015481106106455760405162461bcd60e51b815260040161048e90611401565b8460008082815260046020526040902060080154600160a01b900460ff1660028111156106745761067461112c565b1480156106935750600081815260046020819052604090912001544210155b80156106b057506000818152600460205260409020600501544211155b6106f15760405162461bcd60e51b815260206004820152601260248201527141756374696f6e206e6f742061637469766560701b604482015260640161048e565b600086815260046020526040902060038101546001600160a01b0316330361074f5760405162461bcd60e51b815260206004820152601160248201527014d95b1b195c8818d85b9b9bdd08189a59607a1b604482015260640161048e565b600034116107985760405162461bcd60e51b8152602060048201526016602482015275135d5cdd081cd95b9908115512081dda5d1a08189a5960521b604482015260640161048e565b60006107a5878787610f51565b6000898152600560209081526040808320338085529083528184208590558c8452600683528184209084528252808320805460ff1916600117905560079091528120805492935034929091906107fc908490611447565b90915550506009820180549060006108138361145a565b9091555050604051428152339089907f0e54eff26401bf69b81b26f60bd85ef47f5d85275c1d268d84f68d6897431c479060200160405180910390a35050505050505050565b6000546001600160a01b031633146108835760405162461bcd60e51b815260040161048e906113c0565b6003805460ff19169055565b600460205260009081526040902080546001820180549192916108b190611473565b80601f01602080910402602001604051908101604052809291908181526020018280546108dd90611473565b801561092a5780601f106108ff5761010080835404028352916020019161092a565b820191906000526020600020905b81548152906001019060200180831161090d57829003601f168201915b50505050509080600201805461093f90611473565b80601f016020809104026020016040519081016040528092919081815260200182805461096b90611473565b80156109b85780601f1061098d576101008083540402835291602001916109b8565b820191906000526020600020905b81548152906001019060200180831161099b57829003601f168201915b505050506003830154600484015460058501546006860154600787015460088801546009890154600a9099015497986001600160a01b039687169895975093959294919392811692600160a01b90910460ff90811692168c565b6000816001548110610a365760405162461bcd60e51b815260040161048e90611401565b60008381526004602052604090206009015491505b50919050565b60006060806000806000806000886001548110610a805760405162461bcd60e51b815260040161048e90611401565b60008a815260046020819052604082208054600382015492820154600583015492949193600186019360028701936001600160a01b0390921692916008880154600160a01b900460ff166002811115610adb57610adb61112c565b1487600a0160009054906101000a900460ff16868054610afa90611473565b80601f0160208091040260200160405190810160405280929190818152602001828054610b2690611473565b8015610b735780601f10610b4857610100808354040283529160200191610b73565b820191906000526020600020905b815481529060010190602001808311610b5657829003601f168201915b50505050509650858054610b8690611473565b80601f0160208091040260200160405190810160405280929190818152602001828054610bb290611473565b8015610bff5780601f10610bd457610100808354040283529160200191610bff565b820191906000526020600020905b815481529060010190602001808311610be257829003601f168201915b50505050509550995099509950995099509950995099505050919395975091939597565b6000546001600160a01b03163314610c4d5760405162461bcd60e51b815260040161048e906113c0565b6003805460ff19166001179055565b6000816001548110610c805760405162461bcd60e51b815260040161048e90611401565b6000838152600460205260409020600581015442118015610cc0575060006008820154600160a01b900460ff166002811115610cbe57610cbe61112c565b145b949350505050565b6000546001600160a01b03163314610cf25760405162461bcd60e51b815260040161048e906113c0565b806001548110610d145760405162461bcd60e51b815260040161048e90611401565b506000908152600460205260409020600801805460ff60a01b1916600160a11b179055565b60008281526006602090815260408083206001600160a01b038516845290915290205460ff165b92915050565b60035460009060ff1615610db15760405162461bcd60e51b815260206004820152601260248201527110dbdb9d1c9858dd081a5cc81c185d5cd95960721b604482015260640161048e565b6000875111610dfa5760405162461bcd60e51b81526020600482015260156024820152745469746c652063616e6e6f7420626520656d70747960581b604482015260640161048e565b610e108210158015610e0f575062278d008211155b610e4e5760405162461bcd60e51b815260206004820152601060248201526f24b73b30b634b210323ab930ba34b7b760811b604482015260640161048e565b6001805460009182610e5f8361145a565b90915550600081815260046020526040902081815590915060018101610e858a826114f6565b5060028101610e9489826114f6565b506003810180546001600160a01b031916331790554260048201819055610ebc908590611447565b6005820155610ecc878787610f51565b6006820155600060078201556008810180546001600160a81b031916905560006009820155600a8101805460ff1916905560048101546005820154604051339285927f053703ba54f0bc2bbdb64d7fe4b14d090e88361e446ee2b9e57cfd211cd5a74692610f3d928f9290916115b6565b60405180910390a350979650505050505050565b600081610f905760405162461bcd60e51b815260206004820152600d60248201526c24b73b30b634b210383937b7b360991b604482015260640161048e565b8367ffffffffffffffff811115610cc05760405162461bcd60e51b815260206004820152601a60248201527f56616c756520746f6f206c6172676520666f722075696e743634000000000000604482015260640161048e565b600060208284031215610ffb57600080fd5b5035919050565b60008083601f84011261101457600080fd5b50813567ffffffffffffffff81111561102c57600080fd5b60208301915083602082850101111561104457600080fd5b9250929050565b6000806000806060858703121561106157600080fd5b8435935060208501359250604085013567ffffffffffffffff81111561108657600080fd5b61109287828801611002565b95989497509550505050565b80356001600160a01b03811681146110b557600080fd5b919050565b600080604083850312156110cd57600080fd5b823591506110dd6020840161109e565b90509250929050565b6000815180845260005b8181101561110c576020818501810151868301820152016110f0565b506000602082860101526020601f19601f83011685010191505092915050565b634e487b7160e01b600052602160045260246000fd5b60006101808e835280602084015261115c8184018f6110e6565b90508281036040840152611170818e6110e6565b6001600160a01b038d81166060860152608085018d905260a085018c905260c085018b905260e085018a90528816610100850152915050600385106111c557634e487b7160e01b600052602160045260246000fd5b84610120830152836101408301526111e261016083018415159052565b9d9c50505050505050505050505050565b60006101008a835280602084015261120d8184018b6110e6565b90508281036040840152611221818a6110e6565b6001600160a01b039890981660608401525050608081019490945260a0840192909252151560c0830152151560e0909101529392505050565b634e487b7160e01b600052604160045260246000fd5b600082601f83011261128157600080fd5b813567ffffffffffffffff8082111561129c5761129c61125a565b604051601f8301601f19908116603f011681019082821181831017156112c4576112c461125a565b816040528381528660208588010111156112dd57600080fd5b836020870160208301376000602085830101528094505050505092915050565b60008060008060008060a0878903121561131657600080fd5b863567ffffffffffffffff8082111561132e57600080fd5b61133a8a838b01611270565b9750602089013591508082111561135057600080fd5b61135c8a838b01611270565b965060408901359550606089013591508082111561137957600080fd5b5061138689828a01611002565b979a9699509497949695608090950135949350505050565b6000602082840312156113b057600080fd5b6113b98261109e565b9392505050565b60208082526021908201527f4f6e6c79206f776e65722063616e2063616c6c20746869732066756e6374696f6040820152603760f91b606082015260800190565b602080825260169082015275105d58dd1a5bdb88191bd95cc81b9bdd08195e1a5cdd60521b604082015260600190565b634e487b7160e01b600052601160045260246000fd5b80820180821115610d6057610d60611431565b60006001820161146c5761146c611431565b5060010190565b600181811c9082168061148757607f821691505b602082108103610a4b57634e487b7160e01b600052602260045260246000fd5b601f8211156114f157600081815260208120601f850160051c810160208610156114ce5750805b601f850160051c820191505b818110156114ed578281556001016114da565b5050505b505050565b815167ffffffffffffffff8111156115105761151061125a565b6115248161151e8454611473565b846114a7565b602080601f83116001811461155957600084156115415750858301515b600019600386901b1c1916600185901b1785556114ed565b600085815260208120601f198616915b8281101561158857888601518255948401946001909101908401611569565b50858210156115a65787850151600019600388901b60f8161c191681555b5050505050600190811b01905550565b6060815260006115c960608301866110e6565b6020830194909452506040015291905056fea26469706673582212208c206b99e0cc3787cc6eaee44fe21e8ab925c76ef0674d0894968abdebee3a3464736f6c63430008130033",
  "linkReferences": {},
  "deployedLinkReferences": {}
}